{
  "_format": "hh-sol-artifact-1",
  "contractName": "MARVEL_team",
  "sourceName": "contracts/MARVEL_team.sol",
  "abi": [
    {
      "inputs": [],
      "stateMutability": "nonpayable",
      "type": "constructor"
    },
    {
      "anonymous": false,
      "inputs": [
        {
          "indexed": true,
          "internalType": "address",
          "name": "owner",
          "type": "address"
        },
        {
          "indexed": true,
          "internalType": "address",
          "name": "approved",
          "type": "address"
        },
        {
          "indexed": true,
          "internalType": "uint256",
          "name": "tokenId",
          "type": "uint256"
        }
      ],
      "name": "Approval",
      "type": "event"
    },
    {
      "anonymous": false,
      "inputs": [
        {
          "indexed": true,
          "internalType": "address",
          "name": "owner",
          "type": "address"
        },
        {
          "indexed": true,
          "internalType": "address",
          "name": "operator",
          "type": "address"
        },
        {
          "indexed": false,
          "internalType": "bool",
          "name": "approved",
          "type": "bool"
        }
      ],
      "name": "ApprovalForAll",
      "type": "event"
    },
    {
      "anonymous": false,
      "inputs": [
        {
          "indexed": false,
          "internalType": "address",
          "name": "sender",
          "type": "address"
        },
        {
          "indexed": false,
          "internalType": "uint256",
          "name": "tokenId",
          "type": "uint256"
        }
      ],
      "name": "NewEpicNFTMinted",
      "type": "event"
    },
    {
      "anonymous": false,
      "inputs": [
        {
          "indexed": true,
          "internalType": "address",
          "name": "from",
          "type": "address"
        },
        {
          "indexed": true,
          "internalType": "address",
          "name": "to",
          "type": "address"
        },
        {
          "indexed": true,
          "internalType": "uint256",
          "name": "tokenId",
          "type": "uint256"
        }
      ],
      "name": "Transfer",
      "type": "event"
    },
    {
      "inputs": [
        {
          "internalType": "address",
          "name": "to",
          "type": "address"
        },
        {
          "internalType": "uint256",
          "name": "tokenId",
          "type": "uint256"
        }
      ],
      "name": "approve",
      "outputs": [],
      "stateMutability": "nonpayable",
      "type": "function"
    },
    {
      "inputs": [
        {
          "internalType": "address",
          "name": "owner",
          "type": "address"
        }
      ],
      "name": "balanceOf",
      "outputs": [
        {
          "internalType": "uint256",
          "name": "",
          "type": "uint256"
        }
      ],
      "stateMutability": "view",
      "type": "function"
    },
    {
      "inputs": [
        {
          "internalType": "uint256",
          "name": "tokenId",
          "type": "uint256"
        }
      ],
      "name": "getApproved",
      "outputs": [
        {
          "internalType": "address",
          "name": "",
          "type": "address"
        }
      ],
      "stateMutability": "view",
      "type": "function"
    },
    {
      "inputs": [
        {
          "internalType": "uint256",
          "name": "",
          "type": "uint256"
        }
      ],
      "name": "idtoinfo",
      "outputs": [
        {
          "internalType": "uint256",
          "name": "id",
          "type": "uint256"
        },
        {
          "internalType": "address",
          "name": "minter",
          "type": "address"
        },
        {
          "internalType": "string",
          "name": "uri",
          "type": "string"
        }
      ],
      "stateMutability": "view",
      "type": "function"
    },
    {
      "inputs": [
        {
          "internalType": "address",
          "name": "owner",
          "type": "address"
        },
        {
          "internalType": "address",
          "name": "operator",
          "type": "address"
        }
      ],
      "name": "isApprovedForAll",
      "outputs": [
        {
          "internalType": "bool",
          "name": "",
          "type": "bool"
        }
      ],
      "stateMutability": "view",
      "type": "function"
    },
    {
      "inputs": [],
      "name": "makeAnEpicNFT",
      "outputs": [],
      "stateMutability": "nonpayable",
      "type": "function"
    },
    {
      "inputs": [],
      "name": "name",
      "outputs": [
        {
          "internalType": "string",
          "name": "",
          "type": "string"
        }
      ],
      "stateMutability": "view",
      "type": "function"
    },
    {
      "inputs": [],
      "name": "nftsownedby",
      "outputs": [
        {
          "components": [
            {
              "internalType": "uint256",
              "name": "id",
              "type": "uint256"
            },
            {
              "internalType": "address",
              "name": "minter",
              "type": "address"
            },
            {
              "internalType": "string",
              "name": "uri",
              "type": "string"
            }
          ],
          "internalType": "struct MARVEL_team.idinfo[]",
          "name": "",
          "type": "tuple[]"
        }
      ],
      "stateMutability": "view",
      "type": "function"
    },
    {
      "inputs": [
        {
          "internalType": "uint256",
          "name": "tokenId",
          "type": "uint256"
        }
      ],
      "name": "ownerOf",
      "outputs": [
        {
          "internalType": "address",
          "name": "",
          "type": "address"
        }
      ],
      "stateMutability": "view",
      "type": "function"
    },
    {
      "inputs": [
        {
          "internalType": "uint256",
          "name": "tokenId",
          "type": "uint256"
        }
      ],
      "name": "pickRandomColor",
      "outputs": [
        {
          "internalType": "string",
          "name": "",
          "type": "string"
        }
      ],
      "stateMutability": "view",
      "type": "function"
    },
    {
      "inputs": [
        {
          "internalType": "uint256",
          "name": "tokenId",
          "type": "uint256"
        }
      ],
      "name": "pickRandomFirstWord",
      "outputs": [
        {
          "internalType": "string",
          "name": "",
          "type": "string"
        }
      ],
      "stateMutability": "view",
      "type": "function"
    },
    {
      "inputs": [
        {
          "internalType": "uint256",
          "name": "tokenId",
          "type": "uint256"
        }
      ],
      "name": "pickRandomSecondWord",
      "outputs": [
        {
          "internalType": "string",
          "name": "",
          "type": "string"
        }
      ],
      "stateMutability": "view",
      "type": "function"
    },
    {
      "inputs": [
        {
          "internalType": "uint256",
          "name": "tokenId",
          "type": "uint256"
        }
      ],
      "name": "pickRandomThirdWord",
      "outputs": [
        {
          "internalType": "string",
          "name": "",
          "type": "string"
        }
      ],
      "stateMutability": "view",
      "type": "function"
    },
    {
      "inputs": [
        {
          "internalType": "address",
          "name": "from",
          "type": "address"
        },
        {
          "internalType": "address",
          "name": "to",
          "type": "address"
        },
        {
          "internalType": "uint256",
          "name": "tokenId",
          "type": "uint256"
        }
      ],
      "name": "safeTransferFrom",
      "outputs": [],
      "stateMutability": "nonpayable",
      "type": "function"
    },
    {
      "inputs": [
        {
          "internalType": "address",
          "name": "from",
          "type": "address"
        },
        {
          "internalType": "address",
          "name": "to",
          "type": "address"
        },
        {
          "internalType": "uint256",
          "name": "tokenId",
          "type": "uint256"
        },
        {
          "internalType": "bytes",
          "name": "data",
          "type": "bytes"
        }
      ],
      "name": "safeTransferFrom",
      "outputs": [],
      "stateMutability": "nonpayable",
      "type": "function"
    },
    {
      "inputs": [
        {
          "internalType": "address",
          "name": "operator",
          "type": "address"
        },
        {
          "internalType": "bool",
          "name": "approved",
          "type": "bool"
        }
      ],
      "name": "setApprovalForAll",
      "outputs": [],
      "stateMutability": "nonpayable",
      "type": "function"
    },
    {
      "inputs": [
        {
          "internalType": "bytes4",
          "name": "interfaceId",
          "type": "bytes4"
        }
      ],
      "name": "supportsInterface",
      "outputs": [
        {
          "internalType": "bool",
          "name": "",
          "type": "bool"
        }
      ],
      "stateMutability": "view",
      "type": "function"
    },
    {
      "inputs": [],
      "name": "symbol",
      "outputs": [
        {
          "internalType": "string",
          "name": "",
          "type": "string"
        }
      ],
      "stateMutability": "view",
      "type": "function"
    },
    {
      "inputs": [
        {
          "internalType": "uint256",
          "name": "tokenId",
          "type": "uint256"
        }
      ],
      "name": "tokenURI",
      "outputs": [
        {
          "internalType": "string",
          "name": "",
          "type": "string"
        }
      ],
      "stateMutability": "view",
      "type": "function"
    },
    {
      "inputs": [],
      "name": "totalmints",
      "outputs": [
        {
          "internalType": "uint256",
          "name": "",
          "type": "uint256"
        }
      ],
      "stateMutability": "view",
      "type": "function"
    },
    {
      "inputs": [
        {
          "internalType": "address",
          "name": "from",
          "type": "address"
        },
        {
          "internalType": "address",
          "name": "to",
          "type": "address"
        },
        {
          "internalType": "uint256",
          "name": "tokenId",
          "type": "uint256"
        }
      ],
      "name": "transferFrom",
      "outputs": [],
      "stateMutability": "nonpayable",
      "type": "function"
    }
  ],
  "bytecode": "0x6080604052606460085560405180610100016040528060d381526020016200507460d39139600a908162000034919062000ddc565b506040518060800160405280605681526020016200501e60569139600b90816200005f919062000ddc565b506040518061012001604052806040518060400160405280600f81526020017f4341505441494e414d455249434120000000000000000000000000000000000081525081526020016040518060400160405280600581526020017f54484f522000000000000000000000000000000000000000000000000000000081525081526020016040518060400160405280600881526020017f49524f4e4d414e2000000000000000000000000000000000000000000000000081525081526020016040518060400160405280600581526020017f48554c4b2000000000000000000000000000000000000000000000000000000081525081526020016040518060400160405280600d81526020017f424c41434b50414e54484552200000000000000000000000000000000000000081525081526020016040518060400160405280600781526020017f5448414e4f53200000000000000000000000000000000000000000000000000081525081526020016040518060400160405280600981526020017f535441524c4f524420000000000000000000000000000000000000000000000081525081526020016040518060400160405280600981526020017f50554e495348455220000000000000000000000000000000000000000000000081525081526020016040518060400160405280600e81526020017f4341505441494e4d415256454c20000000000000000000000000000000000000815250815250600c9060096200028f929190620009b5565b506040518061010001604052806040518060400160405280600681526020017f574954434820000000000000000000000000000000000000000000000000000081525081526020016040518060400160405280600881526020017f4e4154415348412000000000000000000000000000000000000000000000000081525081526020016040518060400160405280600781526020017f414e544d414e200000000000000000000000000000000000000000000000000081525081526020016040518060400160405280600a81526020017f5350494445524d414e200000000000000000000000000000000000000000000081525081526020016040518060400160405280600781526020017f474f424c494e200000000000000000000000000000000000000000000000000081525081526020016040518060400160405280600581526020017f4c4f4b492000000000000000000000000000000000000000000000000000000081525081526020016040518060400160405280600b81526020017f44722e535452414e47452000000000000000000000000000000000000000000081525081526020016040518060400160405280600781526020017f564953494f4e2000000000000000000000000000000000000000000000000000815250815250600d9060086200048492919062000a15565b506040518061010001604052806040518060400160405280600781526020017f554c54524f4e200000000000000000000000000000000000000000000000000081525081526020016040518060400160405280600881526020017f4841574b4559452000000000000000000000000000000000000000000000000081525081526020016040518060400160405280600681526020017f4255434b5920000000000000000000000000000000000000000000000000000081525081526020016040518060400160405280600981526020017f5348414e4743484920000000000000000000000000000000000000000000000081525081526020016040518060400160405280600981526020017f44454144504f4f4c20000000000000000000000000000000000000000000000081525081526020016040518060400160405280600a81526020017f574f4c564552494e45200000000000000000000000000000000000000000000081525081526020016040518060400160405280600681526020017f47524f4f5420000000000000000000000000000000000000000000000000000081525081526020016040518060400160405280600a81526020017f44415245444556494c2000000000000000000000000000000000000000000000815250815250600e9060086200067992919062000a15565b506040518060c001604052806040518060400160405280600381526020017f726564000000000000000000000000000000000000000000000000000000000081525081526020016040518060400160405280600781526020017f233038433241380000000000000000000000000000000000000000000000000081525081526020016040518060400160405280600581526020017f626c61636b00000000000000000000000000000000000000000000000000000081525081526020016040518060400160405280600681526020017f79656c6c6f77000000000000000000000000000000000000000000000000000081525081526020016040518060400160405280600481526020017f626c75650000000000000000000000000000000000000000000000000000000081525081526020016040518060400160405280600581526020017f677265656e000000000000000000000000000000000000000000000000000000815250815250600f906006620007f792919062000a75565b503480156200080557600080fd5b506040518060400160405280600c81526020017f4d617276656c5f7465616d7300000000000000000000000000000000000000008152506040518060400160405280600481526020017f4d52564c00000000000000000000000000000000000000000000000000000000815250816000908162000883919062000ddc565b50806001908162000895919062000ddc565b505050620008e36040518060400160405280601881526020017f54686973206973206d79204e465420636f6e7472616374210000000000000000815250620008e960201b620015901760201c565b62000f76565b620009898160405160240162000900919062000f52565b6040516020818303038152906040527f41304fac000000000000000000000000000000000000000000000000000000007bffffffffffffffffffffffffffffffffffffffffffffffffffffffff19166020820180517bffffffffffffffffffffffffffffffffffffffffffffffffffffffff83818316178352505050506200098c60201b60201c565b50565b60008151905060006a636f6e736f6c652e6c6f679050602083016000808483855afa5050505050565b82805482825590600052602060002090810192821562000a02579160200282015b8281111562000a01578251829081620009f0919062000ddc565b5091602001919060010190620009d6565b5b50905062000a11919062000ad5565b5090565b82805482825590600052602060002090810192821562000a62579160200282015b8281111562000a6157825182908162000a50919062000ddc565b509160200191906001019062000a36565b5b50905062000a71919062000ad5565b5090565b82805482825590600052602060002090810192821562000ac2579160200282015b8281111562000ac157825182908162000ab0919062000ddc565b509160200191906001019062000a96565b5b50905062000ad1919062000ad5565b5090565b5b8082111562000af9576000818162000aef919062000afd565b5060010162000ad6565b5090565b50805462000b0b9062000bcb565b6000825580601f1062000b1f575062000b40565b601f01602090049060005260206000209081019062000b3f919062000b43565b5b50565b5b8082111562000b5e57600081600090555060010162000b44565b5090565b600081519050919050565b7f4e487b7100000000000000000000000000000000000000000000000000000000600052604160045260246000fd5b7f4e487b7100000000000000000000000000000000000000000000000000000000600052602260045260246000fd5b6000600282049050600182168062000be457607f821691505b60208210810362000bfa5762000bf962000b9c565b5b50919050565b60008190508160005260206000209050919050565b60006020601f8301049050919050565b600082821b905092915050565b60006008830262000c647fffffffffffffffffffffffffffffffffffffffffffffffffffffffffffffffff8262000c25565b62000c70868362000c25565b95508019841693508086168417925050509392505050565b6000819050919050565b6000819050919050565b600062000cbd62000cb762000cb18462000c88565b62000c92565b62000c88565b9050919050565b6000819050919050565b62000cd98362000c9c565b62000cf162000ce88262000cc4565b84845462000c32565b825550505050565b600090565b62000d0862000cf9565b62000d1581848462000cce565b505050565b5b8181101562000d3d5762000d3160008262000cfe565b60018101905062000d1b565b5050565b601f82111562000d8c5762000d568162000c00565b62000d618462000c15565b8101602085101562000d71578190505b62000d8962000d808562000c15565b83018262000d1a565b50505b505050565b600082821c905092915050565b600062000db16000198460080262000d91565b1980831691505092915050565b600062000dcc838362000d9e565b9150826002028217905092915050565b62000de78262000b62565b67ffffffffffffffff81111562000e035762000e0262000b6d565b5b62000e0f825462000bcb565b62000e1c82828562000d41565b600060209050601f83116001811462000e54576000841562000e3f578287015190505b62000e4b858262000dbe565b86555062000ebb565b601f19841662000e648662000c00565b60005b8281101562000e8e5784890151825560018201915060208501945060208101905062000e67565b8683101562000eae578489015162000eaa601f89168262000d9e565b8355505b6001600288020188555050505b505050505050565b600082825260208201905092915050565b60005b8381101562000ef457808201518184015260208101905062000ed7565b60008484015250505050565b6000601f19601f8301169050919050565b600062000f1e8262000b62565b62000f2a818562000ec3565b935062000f3c81856020860162000ed4565b62000f478162000f00565b840191505092915050565b6000602082019050818103600083015262000f6e818462000f11565b905092915050565b6140988062000f866000396000f3fe608060405234801561001057600080fd5b50600436106101375760003560e01c806370a08231116100b8578063b88d4fde1161007c578063b88d4fde14610388578063c575757a146103a4578063c87b56dd146103d4578063daff0a0614610404578063de9d132f14610422578063e985e9c51461042c57610137565b806370a08231146102bc578063847bf5f1146102ec57806395d89b411461031e578063a22cb4651461033c578063b187301f1461035857610137565b8063249bd8d1116100ff578063249bd8d1146101f25780632de38d681461021057806342842e0e14610240578063514dc8c61461025c5780636352211e1461028c57610137565b806301ffc9a71461013c57806306fdde031461016c578063081812fc1461018a578063095ea7b3146101ba57806323b872dd146101d6575b600080fd5b61015660048036038101906101519190612679565b61045c565b60405161016391906126c1565b60405180910390f35b61017461053e565b604051610181919061276c565b60405180910390f35b6101a4600480360381019061019f91906127c4565b6105d0565b6040516101b19190612832565b60405180910390f35b6101d460048036038101906101cf9190612879565b610616565b005b6101f060048036038101906101eb91906128b9565b61072d565b005b6101fa61078d565b604051610207919061291b565b60405180910390f35b61022a600480360381019061022591906127c4565b610793565b604051610237919061276c565b60405180910390f35b61025a600480360381019061025591906128b9565b61088b565b005b610276600480360381019061027191906127c4565b6108ab565b604051610283919061276c565b60405180910390f35b6102a660048036038101906102a191906127c4565b6109a3565b6040516102b39190612832565b60405180910390f35b6102d660048036038101906102d19190612936565b610a54565b6040516102e3919061291b565b60405180910390f35b610306600480360381019061030191906127c4565b610b0b565b60405161031593929190612963565b60405180910390f35b610326610bdd565b604051610333919061276c565b60405180910390f35b610356600480360381019061035191906129cd565b610c6f565b005b610372600480360381019061036d91906127c4565b610c85565b60405161037f919061276c565b60405180910390f35b6103a2600480360381019061039d9190612b42565b610d7d565b005b6103be60048036038101906103b991906127c4565b610ddf565b6040516103cb919061276c565b60405180910390f35b6103ee60048036038101906103e991906127c4565b610ed7565b6040516103fb919061276c565b60405180910390f35b61040c610fe9565b6040516104199190612d3f565b60405180910390f35b61042a611210565b005b61044660048036038101906104419190612d61565b6114fc565b60405161045391906126c1565b60405180910390f35b60007f80ac58cd000000000000000000000000000000000000000000000000000000007bffffffffffffffffffffffffffffffffffffffffffffffffffffffff1916827bffffffffffffffffffffffffffffffffffffffffffffffffffffffff1916148061052757507f5b5e139f000000000000000000000000000000000000000000000000000000007bffffffffffffffffffffffffffffffffffffffffffffffffffffffff1916827bffffffffffffffffffffffffffffffffffffffffffffffffffffffff1916145b80610537575061053682611629565b5b9050919050565b60606000805461054d90612dd0565b80601f016020809104026020016040519081016040528092919081815260200182805461057990612dd0565b80156105c65780601f1061059b576101008083540402835291602001916105c6565b820191906000526020600020905b8154815290600101906020018083116105a957829003601f168201915b5050505050905090565b60006105db82611693565b6004600083815260200190815260200160002060009054906101000a900473ffffffffffffffffffffffffffffffffffffffff169050919050565b6000610621826109a3565b90508073ffffffffffffffffffffffffffffffffffffffff168373ffffffffffffffffffffffffffffffffffffffff1603610691576040517f08c379a000000000000000000000000000000000000000000000000000000000815260040161068890612e73565b60405180910390fd5b8073ffffffffffffffffffffffffffffffffffffffff166106b06116de565b73ffffffffffffffffffffffffffffffffffffffff1614806106df57506106de816106d96116de565b6114fc565b5b61071e576040517f08c379a000000000000000000000000000000000000000000000000000000000815260040161071590612f05565b60405180910390fd5b61072883836116e6565b505050565b61073e6107386116de565b8261179f565b61077d576040517f08c379a000000000000000000000000000000000000000000000000000000000815260040161077490612f97565b60405180910390fd5b610788838383611834565b505050565b60085481565b606060006107c76107a384611a9a565b6040516020016107b3919061303f565b604051602081830303815290604052611bfa565b9050600c80549050816107da9190613090565b9050600c81815481106107f0576107ef6130c1565b5b90600052602060002001805461080590612dd0565b80601f016020809104026020016040519081016040528092919081815260200182805461083190612dd0565b801561087e5780601f106108535761010080835404028352916020019161087e565b820191906000526020600020905b81548152906001019060200180831161086157829003601f168201915b5050505050915050919050565b6108a683838360405180602001604052806000815250610d7d565b505050565b606060006108df6108bb84611a9a565b6040516020016108cb919061313c565b604051602081830303815290604052611bfa565b9050600f80549050816108f29190613090565b9050600f8181548110610908576109076130c1565b5b90600052602060002001805461091d90612dd0565b80601f016020809104026020016040519081016040528092919081815260200182805461094990612dd0565b80156109965780601f1061096b57610100808354040283529160200191610996565b820191906000526020600020905b81548152906001019060200180831161097957829003601f168201915b5050505050915050919050565b6000806002600084815260200190815260200160002060009054906101000a900473ffffffffffffffffffffffffffffffffffffffff169050600073ffffffffffffffffffffffffffffffffffffffff168173ffffffffffffffffffffffffffffffffffffffff1603610a4b576040517f08c379a0000000000000000000000000000000000000000000000000000000008152600401610a42906131aa565b60405180910390fd5b80915050919050565b60008073ffffffffffffffffffffffffffffffffffffffff168273ffffffffffffffffffffffffffffffffffffffff1603610ac4576040517f08c379a0000000000000000000000000000000000000000000000000000000008152600401610abb9061323c565b60405180910390fd5b600360008373ffffffffffffffffffffffffffffffffffffffff1673ffffffffffffffffffffffffffffffffffffffff168152602001908152602001600020549050919050565b60096020528060005260406000206000915090508060000154908060010160009054906101000a900473ffffffffffffffffffffffffffffffffffffffff1690806002018054610b5a90612dd0565b80601f0160208091040260200160405190810160405280929190818152602001828054610b8690612dd0565b8015610bd35780601f10610ba857610100808354040283529160200191610bd3565b820191906000526020600020905b815481529060010190602001808311610bb657829003601f168201915b5050505050905083565b606060018054610bec90612dd0565b80601f0160208091040260200160405190810160405280929190818152602001828054610c1890612dd0565b8015610c655780601f10610c3a57610100808354040283529160200191610c65565b820191906000526020600020905b815481529060010190602001808311610c4857829003601f168201915b5050505050905090565b610c81610c7a6116de565b8383611c2d565b5050565b60606000610cb9610c9584611a9a565b604051602001610ca591906132a8565b604051602081830303815290604052611bfa565b9050600d8054905081610ccc9190613090565b9050600d8181548110610ce257610ce16130c1565b5b906000526020600020018054610cf790612dd0565b80601f0160208091040260200160405190810160405280929190818152602001828054610d2390612dd0565b8015610d705780601f10610d4557610100808354040283529160200191610d70565b820191906000526020600020905b815481529060010190602001808311610d5357829003601f168201915b5050505050915050919050565b610d8e610d886116de565b8361179f565b610dcd576040517f08c379a0000000000000000000000000000000000000000000000000000000008152600401610dc490612f97565b60405180910390fd5b610dd984848484611d99565b50505050565b60606000610e13610def84611a9a565b604051602001610dff9190613316565b604051602081830303815290604052611bfa565b9050600e8054905081610e269190613090565b9050600e8181548110610e3c57610e3b6130c1565b5b906000526020600020018054610e5190612dd0565b80601f0160208091040260200160405190810160405280929190818152602001828054610e7d90612dd0565b8015610eca5780601f10610e9f57610100808354040283529160200191610eca565b820191906000526020600020905b815481529060010190602001808311610ead57829003601f168201915b5050505050915050919050565b6060610ee282611693565b6000600660008481526020019081526020016000208054610f0290612dd0565b80601f0160208091040260200160405190810160405280929190818152602001828054610f2e90612dd0565b8015610f7b5780601f10610f5057610100808354040283529160200191610f7b565b820191906000526020600020905b815481529060010190602001808311610f5e57829003601f168201915b505050505090506000610f8c611df5565b90506000815103610fa1578192505050610fe4565b600082511115610fd6578082604051602001610fbe929190613338565b60405160208183030381529060405292505050610fe4565b610fdf84611e0c565b925050505b919050565b60606000610ff76007611e74565b905060008167ffffffffffffffff81111561101557611014612a17565b5b60405190808252806020026020018201604052801561104e57816020015b61103b6125d6565b8152602001906001900390816110335790505b50905060005b82811015611207573373ffffffffffffffffffffffffffffffffffffffff166009600083815260200190815260200160002060010160009054906101000a900473ffffffffffffffffffffffffffffffffffffffff1673ffffffffffffffffffffffffffffffffffffffff16036111f45760096000828152602001908152602001600020604051806060016040529081600082015481526020016001820160009054906101000a900473ffffffffffffffffffffffffffffffffffffffff1673ffffffffffffffffffffffffffffffffffffffff1673ffffffffffffffffffffffffffffffffffffffff16815260200160028201805461115390612dd0565b80601f016020809104026020016040519081016040528092919081815260200182805461117f90612dd0565b80156111cc5780601f106111a1576101008083540402835291602001916111cc565b820191906000526020600020905b8154815290600101906020018083116111af57829003601f168201915b5050505050815250508282815181106111e8576111e76130c1565b5b60200260200101819052505b80806111ff9061338b565b915050611054565b50809250505090565b600061121c6007611e74565b90506008548110611262576040517f08c379a00000000000000000000000000000000000000000000000000000000081526004016112599061341f565b60405180910390fd5b600061126d82610793565b9050600061127a83610c85565b9050600061128784610ddf565b905060008383836040516020016112a09392919061343f565b604051602081830303815290604052905060006112bc866108ab565b90506000600a82600b856040516020016112d99493929190613554565b6040516020818303038152906040529050600061131e846112f984611e82565b60405160200161130a929190613719565b604051602081830303815290604052611e82565b905060008160405160200161133391906137aa565b60405160208183030381529060405290506113826040518060400160405280601581526020017f0a2d2d2d2d2d2d2d2d2d2d2d2d2d2d2d2d2d2d2d2d0000000000000000000000815250611590565b61138b81611590565b6113c96040518060400160405280601581526020017f2d2d2d2d2d2d2d2d2d2d2d2d2d2d2d2d2d2d2d2d0a0000000000000000000000815250611590565b6113d3338a612019565b6113dd8982612037565b60405180606001604052808a81526020013373ffffffffffffffffffffffffffffffffffffffff16815260200182815250600960008b81526020019081526020016000206000820151816000015560208201518160010160006101000a81548173ffffffffffffffffffffffffffffffffffffffff021916908373ffffffffffffffffffffffffffffffffffffffff16021790555060408201518160020190816114879190613963565b5090505061149560076120a4565b6114b8604051806060016040528060258152602001613ffe602591398a336120ba565b7febb98688741ffa4c7589bf325de30cf7becb63de567842e1ccdb6cb949fdc82c338a6040516114e9929190613a35565b60405180910390a1505050505050505050565b6000600560008473ffffffffffffffffffffffffffffffffffffffff1673ffffffffffffffffffffffffffffffffffffffff16815260200190815260200160002060008373ffffffffffffffffffffffffffffffffffffffff1673ffffffffffffffffffffffffffffffffffffffff16815260200190815260200160002060009054906101000a900460ff16905092915050565b611626816040516024016115a4919061276c565b6040516020818303038152906040527f41304fac000000000000000000000000000000000000000000000000000000007bffffffffffffffffffffffffffffffffffffffffffffffffffffffff19166020820180517bffffffffffffffffffffffffffffffffffffffffffffffffffffffff8381831617835250505050612159565b50565b60007f01ffc9a7000000000000000000000000000000000000000000000000000000007bffffffffffffffffffffffffffffffffffffffffffffffffffffffff1916827bffffffffffffffffffffffffffffffffffffffffffffffffffffffff1916149050919050565b61169c81612182565b6116db576040517f08c379a00000000000000000000000000000000000000000000000000000000081526004016116d2906131aa565b60405180910390fd5b50565b600033905090565b816004600083815260200190815260200160002060006101000a81548173ffffffffffffffffffffffffffffffffffffffff021916908373ffffffffffffffffffffffffffffffffffffffff160217905550808273ffffffffffffffffffffffffffffffffffffffff16611759836109a3565b73ffffffffffffffffffffffffffffffffffffffff167f8c5be1e5ebec7d5bd14f71427d1e84f3dd0314c0f7b2291e5b200ac8c7c3b92560405160405180910390a45050565b6000806117ab836109a3565b90508073ffffffffffffffffffffffffffffffffffffffff168473ffffffffffffffffffffffffffffffffffffffff1614806117ed57506117ec81856114fc565b5b8061182b57508373ffffffffffffffffffffffffffffffffffffffff16611813846105d0565b73ffffffffffffffffffffffffffffffffffffffff16145b91505092915050565b8273ffffffffffffffffffffffffffffffffffffffff16611854826109a3565b73ffffffffffffffffffffffffffffffffffffffff16146118aa576040517f08c379a00000000000000000000000000000000000000000000000000000000081526004016118a190613ad0565b60405180910390fd5b600073ffffffffffffffffffffffffffffffffffffffff168273ffffffffffffffffffffffffffffffffffffffff1603611919576040517f08c379a000000000000000000000000000000000000000000000000000000000815260040161191090613b62565b60405180910390fd5b6119248383836121ee565b61192f6000826116e6565b6001600360008573ffffffffffffffffffffffffffffffffffffffff1673ffffffffffffffffffffffffffffffffffffffff168152602001908152602001600020600082825461197f9190613b82565b925050819055506001600360008473ffffffffffffffffffffffffffffffffffffffff1673ffffffffffffffffffffffffffffffffffffffff16815260200190815260200160002060008282546119d69190613bb6565b92505081905550816002600083815260200190815260200160002060006101000a81548173ffffffffffffffffffffffffffffffffffffffff021916908373ffffffffffffffffffffffffffffffffffffffff160217905550808273ffffffffffffffffffffffffffffffffffffffff168473ffffffffffffffffffffffffffffffffffffffff167fddf252ad1be2c89b69c2b068fc378daa952ba7f163c4a11628f55a4df523b3ef60405160405180910390a4611a958383836121f3565b505050565b606060008203611ae1576040518060400160405280600181526020017f30000000000000000000000000000000000000000000000000000000000000008152509050611bf5565b600082905060005b60008214611b13578080611afc9061338b565b915050600a82611b0c9190613bea565b9150611ae9565b60008167ffffffffffffffff811115611b2f57611b2e612a17565b5b6040519080825280601f01601f191660200182016040528015611b615781602001600182028036833780820191505090505b5090505b60008514611bee57600182611b7a9190613b82565b9150600a85611b899190613090565b6030611b959190613bb6565b60f81b818381518110611bab57611baa6130c1565b5b60200101907effffffffffffffffffffffffffffffffffffffffffffffffffffffffffffff1916908160001a905350600a85611be79190613bea565b9450611b65565b8093505050505b919050565b600081604051602001611c0d9190613c1b565b6040516020818303038152906040528051906020012060001c9050919050565b8173ffffffffffffffffffffffffffffffffffffffff168373ffffffffffffffffffffffffffffffffffffffff1603611c9b576040517f08c379a0000000000000000000000000000000000000000000000000000000008152600401611c9290613c7e565b60405180910390fd5b80600560008573ffffffffffffffffffffffffffffffffffffffff1673ffffffffffffffffffffffffffffffffffffffff16815260200190815260200160002060008473ffffffffffffffffffffffffffffffffffffffff1673ffffffffffffffffffffffffffffffffffffffff16815260200190815260200160002060006101000a81548160ff0219169083151502179055508173ffffffffffffffffffffffffffffffffffffffff168373ffffffffffffffffffffffffffffffffffffffff167f17307eab39ab6107e8899845ad3d59bd9653f200f220920489ca2b5937696c3183604051611d8c91906126c1565b60405180910390a3505050565b611da4848484611834565b611db0848484846121f8565b611def576040517f08c379a0000000000000000000000000000000000000000000000000000000008152600401611de690613d10565b60405180910390fd5b50505050565b606060405180602001604052806000815250905090565b6060611e1782611693565b6000611e21611df5565b90506000815111611e415760405180602001604052806000815250611e6c565b80611e4b84611a9a565b604051602001611e5c929190613338565b6040516020818303038152906040525b915050919050565b600081600001549050919050565b606060008251905060008103611eaa5760405180602001604052806000815250915050612014565b60006003600283611ebb9190613bb6565b611ec59190613bea565b6004611ed19190613d30565b90506000602082611ee29190613bb6565b67ffffffffffffffff811115611efb57611efa612a17565b5b6040519080825280601f01601f191660200182016040528015611f2d5781602001600182028036833780820191505090505b5090506000604051806060016040528060408152602001614023604091399050600181016020830160005b86811015611fd15760038101905062ffffff818a015116603f8160121c168401518060081b905060ff603f83600c1c1686015116810190508060081b905060ff603f8360061c1686015116810190508060081b905060ff603f831686015116810190508060e01b90508084526004840193505050611f58565b506003860660018114611feb5760028114611ffb57612006565b613d3d60f01b6002830352612006565b603d60f81b60018303525b508484525050819450505050505b919050565b61203382826040518060200160405280600081525061237f565b5050565b61204082612182565b61207f576040517f08c379a000000000000000000000000000000000000000000000000000000000815260040161207690613de4565b60405180910390fd5b8060066000848152602001908152602001600020908161209f9190613963565b505050565b6001816000016000828254019250508190555050565b6121548383836040516024016120d293929190613e04565b6040516020818303038152906040527f1c7ec448000000000000000000000000000000000000000000000000000000007bffffffffffffffffffffffffffffffffffffffffffffffffffffffff19166020820180517bffffffffffffffffffffffffffffffffffffffffffffffffffffffff8381831617835250505050612159565b505050565b60008151905060006a636f6e736f6c652e6c6f679050602083016000808483855afa5050505050565b60008073ffffffffffffffffffffffffffffffffffffffff166002600084815260200190815260200160002060009054906101000a900473ffffffffffffffffffffffffffffffffffffffff1673ffffffffffffffffffffffffffffffffffffffff1614159050919050565b505050565b505050565b60006122198473ffffffffffffffffffffffffffffffffffffffff166123da565b15612372578373ffffffffffffffffffffffffffffffffffffffff1663150b7a026122426116de565b8786866040518563ffffffff1660e01b81526004016122649493929190613e97565b6020604051808303816000875af19250505080156122a057506040513d601f19601f8201168201806040525081019061229d9190613ef8565b60015b612322573d80600081146122d0576040519150601f19603f3d011682016040523d82523d6000602084013e6122d5565b606091505b50600081510361231a576040517f08c379a000000000000000000000000000000000000000000000000000000000815260040161231190613d10565b60405180910390fd5b805181602001fd5b63150b7a0260e01b7bffffffffffffffffffffffffffffffffffffffffffffffffffffffff1916817bffffffffffffffffffffffffffffffffffffffffffffffffffffffff191614915050612377565b600190505b949350505050565b61238983836123fd565b61239660008484846121f8565b6123d5576040517f08c379a00000000000000000000000000000000000000000000000000000000081526004016123cc90613d10565b60405180910390fd5b505050565b6000808273ffffffffffffffffffffffffffffffffffffffff163b119050919050565b600073ffffffffffffffffffffffffffffffffffffffff168273ffffffffffffffffffffffffffffffffffffffff160361246c576040517f08c379a000000000000000000000000000000000000000000000000000000000815260040161246390613f71565b60405180910390fd5b61247581612182565b156124b5576040517f08c379a00000000000000000000000000000000000000000000000000000000081526004016124ac90613fdd565b60405180910390fd5b6124c1600083836121ee565b6001600360008473ffffffffffffffffffffffffffffffffffffffff1673ffffffffffffffffffffffffffffffffffffffff16815260200190815260200160002060008282546125119190613bb6565b92505081905550816002600083815260200190815260200160002060006101000a81548173ffffffffffffffffffffffffffffffffffffffff021916908373ffffffffffffffffffffffffffffffffffffffff160217905550808273ffffffffffffffffffffffffffffffffffffffff16600073ffffffffffffffffffffffffffffffffffffffff167fddf252ad1be2c89b69c2b068fc378daa952ba7f163c4a11628f55a4df523b3ef60405160405180910390a46125d2600083836121f3565b5050565b604051806060016040528060008152602001600073ffffffffffffffffffffffffffffffffffffffff168152602001606081525090565b6000604051905090565b600080fd5b600080fd5b60007fffffffff0000000000000000000000000000000000000000000000000000000082169050919050565b61265681612621565b811461266157600080fd5b50565b6000813590506126738161264d565b92915050565b60006020828403121561268f5761268e612617565b5b600061269d84828501612664565b91505092915050565b60008115159050919050565b6126bb816126a6565b82525050565b60006020820190506126d660008301846126b2565b92915050565b600081519050919050565b600082825260208201905092915050565b60005b838110156127165780820151818401526020810190506126fb565b60008484015250505050565b6000601f19601f8301169050919050565b600061273e826126dc565b61274881856126e7565b93506127588185602086016126f8565b61276181612722565b840191505092915050565b600060208201905081810360008301526127868184612733565b905092915050565b6000819050919050565b6127a18161278e565b81146127ac57600080fd5b50565b6000813590506127be81612798565b92915050565b6000602082840312156127da576127d9612617565b5b60006127e8848285016127af565b91505092915050565b600073ffffffffffffffffffffffffffffffffffffffff82169050919050565b600061281c826127f1565b9050919050565b61282c81612811565b82525050565b60006020820190506128476000830184612823565b92915050565b61285681612811565b811461286157600080fd5b50565b6000813590506128738161284d565b92915050565b600080604083850312156128905761288f612617565b5b600061289e85828601612864565b92505060206128af858286016127af565b9150509250929050565b6000806000606084860312156128d2576128d1612617565b5b60006128e086828701612864565b93505060206128f186828701612864565b9250506040612902868287016127af565b9150509250925092565b6129158161278e565b82525050565b6000602082019050612930600083018461290c565b92915050565b60006020828403121561294c5761294b612617565b5b600061295a84828501612864565b91505092915050565b6000606082019050612978600083018661290c565b6129856020830185612823565b81810360408301526129978184612733565b9050949350505050565b6129aa816126a6565b81146129b557600080fd5b50565b6000813590506129c7816129a1565b92915050565b600080604083850312156129e4576129e3612617565b5b60006129f285828601612864565b9250506020612a03858286016129b8565b9150509250929050565b600080fd5b600080fd5b7f4e487b7100000000000000000000000000000000000000000000000000000000600052604160045260246000fd5b612a4f82612722565b810181811067ffffffffffffffff82111715612a6e57612a6d612a17565b5b80604052505050565b6000612a8161260d565b9050612a8d8282612a46565b919050565b600067ffffffffffffffff821115612aad57612aac612a17565b5b612ab682612722565b9050602081019050919050565b82818337600083830152505050565b6000612ae5612ae084612a92565b612a77565b905082815260208101848484011115612b0157612b00612a12565b5b612b0c848285612ac3565b509392505050565b600082601f830112612b2957612b28612a0d565b5b8135612b39848260208601612ad2565b91505092915050565b60008060008060808587031215612b5c57612b5b612617565b5b6000612b6a87828801612864565b9450506020612b7b87828801612864565b9350506040612b8c878288016127af565b925050606085013567ffffffffffffffff811115612bad57612bac61261c565b5b612bb987828801612b14565b91505092959194509250565b600081519050919050565b600082825260208201905092915050565b6000819050602082019050919050565b612bfa8161278e565b82525050565b612c0981612811565b82525050565b600082825260208201905092915050565b6000612c2b826126dc565b612c358185612c0f565b9350612c458185602086016126f8565b612c4e81612722565b840191505092915050565b6000606083016000830151612c716000860182612bf1565b506020830151612c846020860182612c00565b5060408301518482036040860152612c9c8282612c20565b9150508091505092915050565b6000612cb58383612c59565b905092915050565b6000602082019050919050565b6000612cd582612bc5565b612cdf8185612bd0565b935083602082028501612cf185612be1565b8060005b85811015612d2d5784840389528151612d0e8582612ca9565b9450612d1983612cbd565b925060208a01995050600181019050612cf5565b50829750879550505050505092915050565b60006020820190508181036000830152612d598184612cca565b905092915050565b60008060408385031215612d7857612d77612617565b5b6000612d8685828601612864565b9250506020612d9785828601612864565b9150509250929050565b7f4e487b7100000000000000000000000000000000000000000000000000000000600052602260045260246000fd5b60006002820490506001821680612de857607f821691505b602082108103612dfb57612dfa612da1565b5b50919050565b7f4552433732313a20617070726f76616c20746f2063757272656e74206f776e6560008201527f7200000000000000000000000000000000000000000000000000000000000000602082015250565b6000612e5d6021836126e7565b9150612e6882612e01565b604082019050919050565b60006020820190508181036000830152612e8c81612e50565b9050919050565b7f4552433732313a20617070726f76652063616c6c6572206973206e6f7420746f60008201527f6b656e206f776e6572206e6f7220617070726f76656420666f7220616c6c0000602082015250565b6000612eef603e836126e7565b9150612efa82612e93565b604082019050919050565b60006020820190508181036000830152612f1e81612ee2565b9050919050565b7f4552433732313a2063616c6c6572206973206e6f7420746f6b656e206f776e6560008201527f72206e6f7220617070726f766564000000000000000000000000000000000000602082015250565b6000612f81602e836126e7565b9150612f8c82612f25565b604082019050919050565b60006020820190508181036000830152612fb081612f74565b9050919050565b600081905092915050565b7f46495253545f574f524400000000000000000000000000000000000000000000600082015250565b6000612ff8600a83612fb7565b915061300382612fc2565b600a82019050919050565b6000613019826126dc565b6130238185612fb7565b93506130338185602086016126f8565b80840191505092915050565b600061304a82612feb565b9150613056828461300e565b915081905092915050565b7f4e487b7100000000000000000000000000000000000000000000000000000000600052601260045260246000fd5b600061309b8261278e565b91506130a68361278e565b9250826130b6576130b5613061565b5b828206905092915050565b7f4e487b7100000000000000000000000000000000000000000000000000000000600052603260045260246000fd5b7f434f4c4f52000000000000000000000000000000000000000000000000000000600082015250565b6000613126600583612fb7565b9150613131826130f0565b600582019050919050565b600061314782613119565b9150613153828461300e565b915081905092915050565b7f4552433732313a20696e76616c696420746f6b656e2049440000000000000000600082015250565b60006131946018836126e7565b915061319f8261315e565b602082019050919050565b600060208201905081810360008301526131c381613187565b9050919050565b7f4552433732313a2061646472657373207a65726f206973206e6f74206120766160008201527f6c6964206f776e65720000000000000000000000000000000000000000000000602082015250565b60006132266029836126e7565b9150613231826131ca565b604082019050919050565b6000602082019050818103600083015261325581613219565b9050919050565b7f5345434f4e445f574f5244000000000000000000000000000000000000000000600082015250565b6000613292600b83612fb7565b915061329d8261325c565b600b82019050919050565b60006132b382613285565b91506132bf828461300e565b915081905092915050565b7f54484952445f574f524400000000000000000000000000000000000000000000600082015250565b6000613300600a83612fb7565b915061330b826132ca565b600a82019050919050565b6000613321826132f3565b915061332d828461300e565b915081905092915050565b6000613344828561300e565b9150613350828461300e565b91508190509392505050565b7f4e487b7100000000000000000000000000000000000000000000000000000000600052601160045260246000fd5b60006133968261278e565b91507fffffffffffffffffffffffffffffffffffffffffffffffffffffffffffffffff82036133c8576133c761335c565b5b600182019050919050565b7f746f74616c206c696d6974206f66206d696e7473207375727061737365640000600082015250565b6000613409601e836126e7565b9150613414826133d3565b602082019050919050565b60006020820190508181036000830152613438816133fc565b9050919050565b600061344b828661300e565b9150613457828561300e565b9150613463828461300e565b9150819050949350505050565b60008190508160005260206000209050919050565b6000815461349281612dd0565b61349c8186612fb7565b945060018216600081146134b757600181146134cc576134ff565b60ff19831686528115158202860193506134ff565b6134d585613470565b60005b838110156134f7578154818901526001820191506020810190506134d8565b838801955050505b50505092915050565b7f3c2f746578743e3c2f7376673e00000000000000000000000000000000000000600082015250565b600061353e600d83612fb7565b915061354982613508565b600d82019050919050565b60006135608287613485565b915061356c828661300e565b91506135788285613485565b9150613584828461300e565b915061358f82613531565b915081905095945050505050565b7f7b226e616d65223a202200000000000000000000000000000000000000000000600082015250565b60006135d3600a83612fb7565b91506135de8261359d565b600a82019050919050565b7f222c20226465736372697074696f6e223a202241206d617276656c207465616d60008201527f20746f207361766520796f75207673206f74686572207465616d732e2042657360208201527f74207465616d2077696c6c20686176652068696768206c697374696e6720707260408201527f6963652e222c2022696d616765223a2022646174613a696d6167652f7376672b60608201527f786d6c3b6261736536342c000000000000000000000000000000000000000000608082015250565b60006136b7608b83612fb7565b91506136c2826135e9565b608b82019050919050565b7f227d000000000000000000000000000000000000000000000000000000000000600082015250565b6000613703600283612fb7565b915061370e826136cd565b600282019050919050565b6000613724826135c6565b9150613730828561300e565b915061373b826136aa565b9150613747828461300e565b9150613752826136f6565b91508190509392505050565b7f646174613a6170706c69636174696f6e2f6a736f6e3b6261736536342c000000600082015250565b6000613794601d83612fb7565b915061379f8261375e565b601d82019050919050565b60006137b582613787565b91506137c1828461300e565b915081905092915050565b60006020601f8301049050919050565b600082821b905092915050565b6000600883026138197fffffffffffffffffffffffffffffffffffffffffffffffffffffffffffffffff826137dc565b61382386836137dc565b95508019841693508086168417925050509392505050565b6000819050919050565b600061386061385b6138568461278e565b61383b565b61278e565b9050919050565b6000819050919050565b61387a83613845565b61388e61388682613867565b8484546137e9565b825550505050565b600090565b6138a3613896565b6138ae818484613871565b505050565b5b818110156138d2576138c760008261389b565b6001810190506138b4565b5050565b601f821115613917576138e881613470565b6138f1846137cc565b81016020851015613900578190505b61391461390c856137cc565b8301826138b3565b50505b505050565b600082821c905092915050565b600061393a6000198460080261391c565b1980831691505092915050565b60006139538383613929565b9150826002028217905092915050565b61396c826126dc565b67ffffffffffffffff81111561398557613984612a17565b5b61398f8254612dd0565b61399a8282856138d6565b600060209050601f8311600181146139cd57600084156139bb578287015190505b6139c58582613947565b865550613a2d565b601f1984166139db86613470565b60005b82811015613a03578489015182556001820191506020850194506020810190506139de565b86831015613a205784890151613a1c601f891682613929565b8355505b6001600288020188555050505b505050505050565b6000604082019050613a4a6000830185612823565b613a57602083018461290c565b9392505050565b7f4552433732313a207472616e736665722066726f6d20696e636f72726563742060008201527f6f776e6572000000000000000000000000000000000000000000000000000000602082015250565b6000613aba6025836126e7565b9150613ac582613a5e565b604082019050919050565b60006020820190508181036000830152613ae981613aad565b9050919050565b7f4552433732313a207472616e7366657220746f20746865207a65726f2061646460008201527f7265737300000000000000000000000000000000000000000000000000000000602082015250565b6000613b4c6024836126e7565b9150613b5782613af0565b604082019050919050565b60006020820190508181036000830152613b7b81613b3f565b9050919050565b6000613b8d8261278e565b9150613b988361278e565b9250828203905081811115613bb057613baf61335c565b5b92915050565b6000613bc18261278e565b9150613bcc8361278e565b9250828201905080821115613be457613be361335c565b5b92915050565b6000613bf58261278e565b9150613c008361278e565b925082613c1057613c0f613061565b5b828204905092915050565b6000613c27828461300e565b915081905092915050565b7f4552433732313a20617070726f766520746f2063616c6c657200000000000000600082015250565b6000613c686019836126e7565b9150613c7382613c32565b602082019050919050565b60006020820190508181036000830152613c9781613c5b565b9050919050565b7f4552433732313a207472616e7366657220746f206e6f6e20455243373231526560008201527f63656976657220696d706c656d656e7465720000000000000000000000000000602082015250565b6000613cfa6032836126e7565b9150613d0582613c9e565b604082019050919050565b60006020820190508181036000830152613d2981613ced565b9050919050565b6000613d3b8261278e565b9150613d468361278e565b9250828202613d548161278e565b91508282048414831517613d6b57613d6a61335c565b5b5092915050565b7f45524337323155524953746f726167653a2055524920736574206f66206e6f6e60008201527f6578697374656e7420746f6b656e000000000000000000000000000000000000602082015250565b6000613dce602e836126e7565b9150613dd982613d72565b604082019050919050565b60006020820190508181036000830152613dfd81613dc1565b9050919050565b60006060820190508181036000830152613e1e8186612733565b9050613e2d602083018561290c565b613e3a6040830184612823565b949350505050565b600081519050919050565b600082825260208201905092915050565b6000613e6982613e42565b613e738185613e4d565b9350613e838185602086016126f8565b613e8c81612722565b840191505092915050565b6000608082019050613eac6000830187612823565b613eb96020830186612823565b613ec6604083018561290c565b8181036060830152613ed88184613e5e565b905095945050505050565b600081519050613ef28161264d565b92915050565b600060208284031215613f0e57613f0d612617565b5b6000613f1c84828501613ee3565b91505092915050565b7f4552433732313a206d696e7420746f20746865207a65726f2061646472657373600082015250565b6000613f5b6020836126e7565b9150613f6682613f25565b602082019050919050565b60006020820190508181036000830152613f8a81613f4e565b9050919050565b7f4552433732313a20746f6b656e20616c7265616479206d696e74656400000000600082015250565b6000613fc7601c836126e7565b9150613fd282613f91565b602082019050919050565b60006020820190508181036000830152613ff681613fba565b905091905056fe416e204e465420772f20494420257320686173206265656e206d696e74656420746f2025734142434445464748494a4b4c4d4e4f505152535455565758595a6162636465666768696a6b6c6d6e6f707172737475767778797a303132333435363738392b2fa26469706673582212202edd1ff16dc2123195b8c224d5ae085863921b718dfd4df55b00179bf6da69c364736f6c63430008110033272f3e3c7465787420783d273530252720793d273530252720636c6173733d27626173652720646f6d696e616e742d626173656c696e653d276d6964646c652720746578742d616e63686f723d276d6964646c65273e3c73766720786d6c6e733d27687474703a2f2f7777772e77332e6f72672f323030302f73766727207072657365727665417370656374526174696f3d27784d696e594d696e206d656574272076696577426f783d273020302034353020333530273e3c7374796c653e2e62617365207b2066696c6c3a2077686974653b20666f6e742d66616d696c793a2073657269663b20666f6e742d73697a653a20323470783b207d3c2f7374796c653e3c726563742077696474683d273130302527206865696768743d2731303025272066696c6c3d27",
  "linkReferences": {},
  "deployedLinkReferences": {}
}